{
    "contractName": "Tokens",
    "abi": [
        {
            "inputs": [],
            "stateMutability": "nonpayable",
            "type": "constructor"
        },
        {
            "inputs": [
                {
                    "internalType": "address",
                    "name": "",
                    "type": "address"
                }
            ],
            "name": "balances",
            "outputs": [
                {
                    "internalType": "uint256",
                    "name": "",
                    "type": "uint256"
                }
            ],
            "stateMutability": "view",
            "type": "function"
        },
        {
            "inputs": [],
            "name": "owner",
            "outputs": [
                {
                    "internalType": "address",
                    "name": "",
                    "type": "address"
                }
            ],
            "stateMutability": "view",
            "type": "function"
        },
        {
            "inputs": [],
            "name": "paused",
            "outputs": [
                {
                    "internalType": "bool",
                    "name": "",
                    "type": "bool"
                }
            ],
            "stateMutability": "view",
            "type": "function"
        }
    ],
    "bytecode": "608060405234801561001057600080fd5b50600080546001600160a81b0319163360ff60a01b19811691909117825581526001602052604081206103e8905561012090819061004e90396000f3fe6080604052348015600f57600080fd5b5060043610603c5760003560e01c806327e235e31460415780635c975abb1460715780638da5cb5b146093575b600080fd5b605e604c36600460bc565b60016020526000908152604090205481565b6040519081526020015b60405180910390f35b600054608490600160a01b900460ff1681565b60405190151581526020016068565b60005460a5906001600160a01b031681565b6040516001600160a01b0390911681526020016068565b60006020828403121560cd57600080fd5b81356001600160a01b038116811460e357600080fd5b939250505056fea26469706673582212207af6bb94718f4123b4ab8a0e314b1d9453eb0961cdd017d01fc1274fbc5057a864736f6c63430008130033",
    "sourcePath": "d:/programming/Solidity/modifiers.sol",
    "compiler": {
        "name": "solc",
        "version": "0.8.19+commit.7dd6d404"
    },
    "functionHashes": {
        "balances(address)": "27e235e3",
        "owner()": "8da5cb5b",
        "paused()": "5c975abb"
    },
    "gasEstimates": {
        "creation": {
            "codeDepositCost": "57600",
            "executionCost": "46542",
            "totalCost": "104142"
        },
        "external": {
            "balances(address)": "2451",
            "owner()": "2359",
            "paused()": "2327"
        }
    }
}